{
  "contractName": "DataUnionFactorySidechain",
  "abi": [
    {
      "inputs": [
        {
          "internalType": "address",
          "name": "_token_mediator",
          "type": "address"
        },
        {
          "internalType": "address",
          "name": "_data_union_sidechain_template",
          "type": "address"
        }
      ],
      "stateMutability": "nonpayable",
      "type": "constructor"
    },
    {
      "anonymous": false,
      "inputs": [
        {
          "indexed": false,
          "internalType": "uint256",
          "name": "amountWei",
          "type": "uint256"
        }
      ],
      "name": "DUInitialEthSent",
      "type": "event"
    },
    {
      "anonymous": false,
      "inputs": [
        {
          "indexed": false,
          "internalType": "uint256",
          "name": "amountWei",
          "type": "uint256"
        }
      ],
      "name": "OwnerInitialEthSent",
      "type": "event"
    },
    {
      "anonymous": false,
      "inputs": [
        {
          "indexed": true,
          "internalType": "address",
          "name": "previousOwner",
          "type": "address"
        },
        {
          "indexed": true,
          "internalType": "address",
          "name": "newOwner",
          "type": "address"
        }
      ],
      "name": "OwnershipTransferred",
      "type": "event"
    },
    {
      "anonymous": false,
      "inputs": [
        {
          "indexed": true,
          "internalType": "address",
          "name": "mainnet",
          "type": "address"
        },
        {
          "indexed": true,
          "internalType": "address",
          "name": "sidenet",
          "type": "address"
        },
        {
          "indexed": true,
          "internalType": "address",
          "name": "owner",
          "type": "address"
        },
        {
          "indexed": false,
          "internalType": "address",
          "name": "template",
          "type": "address"
        }
      ],
      "name": "SidechainDUCreated",
      "type": "event"
    },
    {
      "anonymous": false,
      "inputs": [
        {
          "indexed": false,
          "internalType": "uint256",
          "name": "amount",
          "type": "uint256"
        }
      ],
      "name": "UpdateDefaultNewMemberInitialEth",
      "type": "event"
    },
    {
      "anonymous": false,
      "inputs": [
        {
          "indexed": false,
          "internalType": "uint256",
          "name": "amount",
          "type": "uint256"
        }
      ],
      "name": "UpdateNewDUInitialEth",
      "type": "event"
    },
    {
      "anonymous": false,
      "inputs": [
        {
          "indexed": false,
          "internalType": "uint256",
          "name": "amount",
          "type": "uint256"
        }
      ],
      "name": "UpdateNewDUOwnerInitialEth",
      "type": "event"
    },
    {
      "inputs": [],
      "name": "amb",
      "outputs": [
        {
          "internalType": "contract IAMB",
          "name": "",
          "type": "address"
        }
      ],
      "stateMutability": "view",
      "type": "function"
    },
    {
      "inputs": [],
      "name": "claimOwnership",
      "outputs": [],
      "stateMutability": "nonpayable",
      "type": "function"
    },
    {
      "inputs": [],
      "name": "data_union_sidechain_template",
      "outputs": [
        {
          "internalType": "address",
          "name": "",
          "type": "address"
        }
      ],
      "stateMutability": "view",
      "type": "function"
    },
    {
      "inputs": [],
      "name": "defaultNewMemberEth",
      "outputs": [
        {
          "internalType": "uint256",
          "name": "",
          "type": "uint256"
        }
      ],
      "stateMutability": "view",
      "type": "function"
    },
    {
      "inputs": [],
      "name": "newDUInitialEth",
      "outputs": [
        {
          "internalType": "uint256",
          "name": "",
          "type": "uint256"
        }
      ],
      "stateMutability": "view",
      "type": "function"
    },
    {
      "inputs": [],
      "name": "newDUOwnerInitialEth",
      "outputs": [
        {
          "internalType": "uint256",
          "name": "",
          "type": "uint256"
        }
      ],
      "stateMutability": "view",
      "type": "function"
    },
    {
      "inputs": [],
      "name": "owner",
      "outputs": [
        {
          "internalType": "address",
          "name": "",
          "type": "address"
        }
      ],
      "stateMutability": "view",
      "type": "function"
    },
    {
      "inputs": [],
      "name": "pendingOwner",
      "outputs": [
        {
          "internalType": "address",
          "name": "",
          "type": "address"
        }
      ],
      "stateMutability": "view",
      "type": "function"
    },
    {
      "inputs": [],
      "name": "token_mediator",
      "outputs": [
        {
          "internalType": "contract ITokenMediator",
          "name": "",
          "type": "address"
        }
      ],
      "stateMutability": "view",
      "type": "function"
    },
    {
      "inputs": [
        {
          "internalType": "address",
          "name": "newOwner",
          "type": "address"
        }
      ],
      "name": "transferOwnership",
      "outputs": [],
      "stateMutability": "nonpayable",
      "type": "function"
    },
    {
      "stateMutability": "payable",
      "type": "receive"
    },
    {
      "inputs": [
        {
          "internalType": "uint256",
          "name": "val",
          "type": "uint256"
        }
      ],
      "name": "setNewDUInitialEth",
      "outputs": [],
      "stateMutability": "nonpayable",
      "type": "function"
    },
    {
      "inputs": [
        {
          "internalType": "uint256",
          "name": "val",
          "type": "uint256"
        }
      ],
      "name": "setNewDUOwnerInitialEth",
      "outputs": [],
      "stateMutability": "nonpayable",
      "type": "function"
    },
    {
      "inputs": [
        {
          "internalType": "uint256",
          "name": "val",
          "type": "uint256"
        }
      ],
      "name": "setNewMemberInitialEth",
      "outputs": [],
      "stateMutability": "nonpayable",
      "type": "function"
    },
    {
      "inputs": [
        {
          "internalType": "address",
          "name": "mainet_address",
          "type": "address"
        }
      ],
      "name": "sidechainAddress",
      "outputs": [
        {
          "internalType": "address",
          "name": "proxy",
          "type": "address"
        }
      ],
      "stateMutability": "view",
      "type": "function"
    },
    {
      "inputs": [
        {
          "internalType": "address payable",
          "name": "owner",
          "type": "address"
        },
        {
          "internalType": "address[]",
          "name": "agents",
          "type": "address[]"
        }
      ],
      "name": "deployNewDUSidechain",
      "outputs": [
        {
          "internalType": "address",
          "name": "",
          "type": "address"
        }
      ],
      "stateMutability": "nonpayable",
      "type": "function"
    }
  ],
  "bytecode": "0x608060405234801561001057600080fd5b50604051610dc4380380610dc48339818101604052604081101561003357600080fd5b50805160209182015160008054336001600160a01b0319918216179091556004805482166001600160a01b038086169190911780835560028054909416828616179093556040805163cd59658360e01b8152905195969495939091169363cd59658393828401939192909190829003018186803b1580156100b357600080fd5b505afa1580156100c7573d6000803e3d6000fd5b505050506040513d60208110156100dd57600080fd5b5051600380546001600160a01b0319166001600160a01b0390921691909117905550610cb49050806101106000396000f3fe6080604052600436106100ec5760003560e01c8063afc6224b1161008a578063e4a154a411610059578063e4a154a414610302578063f0ef0b0614610317578063f2fde38b14610341578063f7c1329e14610374576100f3565b8063afc6224b1461029c578063c5a8c91f146102c3578063e22ab5ae146102d8578063e30c3978146102ed576100f3565b806337dd8b05116100c657806337dd8b051461021c5780634e51a863146102485780634e71e0c8146102725780638da5cb5b14610287576100f3565b80631062b39a146100f857806317c2a98c14610129578063325ff66f1461015c576100f3565b366100f357005b600080fd5b34801561010457600080fd5b5061010d610389565b604080516001600160a01b039092168252519081900360200190f35b34801561013557600080fd5b5061010d6004803603602081101561014c57600080fd5b50356001600160a01b0316610398565b34801561016857600080fd5b5061010d6004803603604081101561017f57600080fd5b6001600160a01b0382351691908101906040810160208201356401000000008111156101aa57600080fd5b8201836020820111156101bc57600080fd5b803590602001918460208302840111640100000000831117156101de57600080fd5b9190808060200260200160405190810160405280939291908181526020018383602002808284376000920191909152509295506103bd945050505050565b34801561022857600080fd5b506102466004803603602081101561023f57600080fd5b503561072d565b005b34801561025457600080fd5b506102466004803603602081101561026b57600080fd5b50356107c3565b34801561027e57600080fd5b50610246610858565b34801561029357600080fd5b5061010d61090e565b3480156102a857600080fd5b506102b161091d565b60408051918252519081900360200190f35b3480156102cf57600080fd5b5061010d610923565b3480156102e457600080fd5b506102b1610932565b3480156102f957600080fd5b5061010d610938565b34801561030e57600080fd5b5061010d610947565b34801561032357600080fd5b506102466004803603602081101561033a57600080fd5b5035610956565b34801561034d57600080fd5b506102466004803603602081101561036457600080fd5b50356001600160a01b03166109eb565b34801561038057600080fd5b506102b1610a58565b6003546001600160a01b031681565b6002546000906103b7906001600160a01b039081169030908516610a5e565b92915050565b6003546000906001600160a01b0316331461040a576040805162461bcd60e51b815260206004820152600860248201526737b7363cafa0a6a160c11b604482015290519081900360640190fd5b6003546040805163d67bdd2560e01b815290516000926001600160a01b03169163d67bdd25916004808301926020929190829003018186803b15801561044f57600080fd5b505afa158015610463573d6000803e3d6000fd5b505050506040513d602081101561047957600080fd5b505160048054604080516318d8f9c960e01b815290519394506001600160a01b03808616946060948a94909216926318d8f9c99281810192602092909190829003018186803b1580156104cb57600080fd5b505afa1580156104df573d6000803e3d6000fd5b505050506040513d60208110156104f557600080fd5b50516004546007546040516001600160a01b038581166024830190815281861660448401529381166084830181905290891660a483015260c4820183905260c0606483019081528b5160e48401528b518c9592948b9490939291610104909101906020888101910280838360005b8381101561057b578181015183820152602001610563565b50506040805193909501838103601f190184529094525060208101805163015c7f5160e01b6001600160e01b03909116179052600254909b5060009a506105e099506105d998506001600160a01b03169650610aca95505050505050565b8385610b1c565b600254604080516001600160a01b0392831681529051929350818a1692828516928816917f90d0a5d098b9a181ff8ddc866f840cc210e5b91eaf27bc267d5822a0deafad25919081900360200190a4600060055411801561064357506005544710155b156106a9576005546040516001600160a01b0383169180156108fc02916000818181858888f19350505050156106a95760055460408051918252517f517165f169759cdb94227d1c50f4f47895eb099a7f04a780f519bf1739face6f9181900360200190a15b60006006541180156106bd57506006544710155b15610723576006546040516001600160a01b0389169180156108fc02916000818181858888f19350505050156107235760065460408051918252517f69e30c0bf438d0d3e0afb7f68d57ef394a0d5e8712f82fa00aa599e42574bc2a9181900360200190a15b9695505050505050565b6000546001600160a01b03163314610778576040805162461bcd60e51b815260206004820152600960248201526837b7363ca7bbb732b960b91b604482015290519081900360640190fd5b600754811415610787576107c0565b60078190556040805182815290517f7a78bdfbfb2e909f35c05c77e80038cfd0a22c704748eba8b1d20aab76cd5d9c9181900360200190a15b50565b6000546001600160a01b0316331461080e576040805162461bcd60e51b815260206004820152600960248201526837b7363ca7bbb732b960b91b604482015290519081900360640190fd5b60055481141561081d576107c0565b60058190556040805182815290517fa02ce31a8a8adcdc2e2811a0c7f5d1eb1aa920ca9fdfaeaebfe3a2163e69a6549181900360200190a150565b6001546001600160a01b031633146108aa576040805162461bcd60e51b815260206004820152601060248201526f37b7363ca832b73234b733a7bbb732b960811b604482015290519081900360640190fd5b600154600080546040516001600160a01b0393841693909116917f8be0079c531659141344cd1fd0a4f28419497f9722a3daafe3b4186f6b6457e091a360018054600080546001600160a01b03199081166001600160a01b03841617909155169055565b6000546001600160a01b031681565b60065481565b6004546001600160a01b031681565b60075481565b6001546001600160a01b031681565b6002546001600160a01b031681565b6000546001600160a01b031633146109a1576040805162461bcd60e51b815260206004820152600960248201526837b7363ca7bbb732b960b91b604482015290519081900360640190fd5b6006548114156109b0576107c0565b60068190556040805182815290517fe08bf32e9c0e823a76d0088908afba678014c513e2311bba64fc72f38ae809709181900360200190a150565b6000546001600160a01b03163314610a36576040805162461bcd60e51b815260206004820152600960248201526837b7363ca7bbb732b960b91b604482015290519081900360640190fd5b600180546001600160a01b0319166001600160a01b0392909216919091179055565b60055481565b600080610a6a85610aca565b8051602091820120604080516001600160f81b0319818501526bffffffffffffffffffffffff19606089901b1660218201526035810187905260558082019390935281518082039093018352607501905280519101209150509392505050565b604080516057810190915260378152733d602d80600a3d3981f3363d3d373d3d3d363d7360601b602082015260609190911b60348201526e5af43d82803e903d91602b57fd5bf360881b604882015290565b825160009082816020870184f591506001600160a01b038216610b7d576040805162461bcd60e51b8152602060048201526014602482015273195c9c9bdc97d85b1c9958591e50dc99585d195960621b604482015290519081900360640190fd5b835115610c76576000826001600160a01b0316856040518082805190602001908083835b60208310610bc05780518252601f199092019160209182019101610ba1565b6001836020036101000a0380198251168184511680821785525050505050509050019150506000604051808303816000865af19150503d8060008114610c22576040519150601f19603f3d011682016040523d82523d6000602084013e610c27565b606091505b5050905080610c74576040805162461bcd60e51b815260206004820152601460248201527332b93937b92fb4b734ba34b0b634bd30ba34b7b760611b604482015290519081900360640190fd5b505b50939250505056fea2646970667358221220fa7f736abf5c61a479fc0ecdda3b0c4faa356879439496fe24c02d77d45b90df64736f6c63430006060033",
  "immutableReferences": {},
  "source": "pragma solidity ^0.6.0;\n\nimport \"openzeppelin-solidity/contracts/token/ERC20/IERC20.sol\";\nimport \"openzeppelin-solidity/contracts/math/SafeMath.sol\";\nimport \"./CloneLib.sol\";\nimport \"./IAMB.sol\";\nimport \"./ITokenMediator.sol\";\nimport \"./Ownable.sol\"; // TODO: switch to \"openzeppelin-solidity/contracts/access/Ownable.sol\";\n\ncontract DataUnionFactorySidechain is Ownable{\n    event SidechainDUCreated(address indexed mainnet, address indexed sidenet, address indexed owner, address template);\n    event UpdateNewDUInitialEth(uint amount);\n    event UpdateNewDUOwnerInitialEth(uint amount);\n    event UpdateDefaultNewMemberInitialEth(uint amount);\n    event DUInitialEthSent(uint amountWei);\n    event OwnerInitialEthSent(uint amountWei);\n\n    address public data_union_sidechain_template;\n    IAMB public amb;\n    ITokenMediator public token_mediator;\n    \n    // when sidechain DU is created, the factory sends a bit of sETH to the DU and the owner\n    uint public newDUInitialEth;\n    uint public newDUOwnerInitialEth;\n    uint public defaultNewMemberEth;\n\n    constructor(address _token_mediator, address _data_union_sidechain_template) public Ownable(msg.sender) {\n        token_mediator = ITokenMediator(_token_mediator);\n        data_union_sidechain_template = _data_union_sidechain_template;\n        amb = IAMB(token_mediator.bridgeContract());\n    }\n\n    //contract is payable\n    receive() external payable {}\n\n    function setNewDUInitialEth(uint val) public onlyOwner {\n        if(val == newDUInitialEth) return;\n        newDUInitialEth = val;\n        emit UpdateNewDUInitialEth(val);\n    }\n\n    function setNewDUOwnerInitialEth(uint val) public onlyOwner {\n        if(val == newDUOwnerInitialEth) return;\n        newDUOwnerInitialEth = val;\n        emit UpdateNewDUOwnerInitialEth(val);\n    }\n\n    function setNewMemberInitialEth(uint val) public onlyOwner {\n        if(val == defaultNewMemberEth) return;\n        defaultNewMemberEth = val;\n        emit UpdateDefaultNewMemberInitialEth(val);\n    }\n\n\n    function sidechainAddress(address mainet_address)\n        public view\n        returns (address proxy)\n    {\n        return CloneLib.predictCloneAddressCreate2(data_union_sidechain_template, address(this), bytes32(uint256(mainet_address)));\n    }\n\n    /*\n    Must be called by AMB. Use MockAMB for testing.\n    salt = mainnet_address.\n    */\n    \n    function deployNewDUSidechain(address payable owner, address[] memory agents) public returns (address) {\n        require(msg.sender == address(amb), \"only_AMB\");\n        address duMainnet = amb.messageSender();\n        bytes32 salt = bytes32(uint256(duMainnet));\n        bytes memory data = abi.encodeWithSignature(\"initialize(address,address,address[],address,address,uint256)\",\n            owner,\n            token_mediator.erc677token(),\n            agents,\n            address(token_mediator),\n            duMainnet,\n            defaultNewMemberEth\n        );\n        address payable du = CloneLib.deployCodeAndInitUsingCreate2(CloneLib.cloneBytecode(data_union_sidechain_template), data, salt);\n        emit SidechainDUCreated(duMainnet, du, owner, data_union_sidechain_template);\n\n        // continue whether or not send succeeds\n        if (newDUInitialEth > 0 && address(this).balance >= newDUInitialEth) {\n            if (du.send(newDUInitialEth)) {\n                DUInitialEthSent(newDUInitialEth);\n            }\n        }\n        if (newDUOwnerInitialEth > 0 && address(this).balance >= newDUOwnerInitialEth) {\n            if (owner.send(newDUOwnerInitialEth)) {\n                OwnerInitialEthSent(newDUOwnerInitialEth);\n            }\n        }\n        return du;\n    }\n}\n",
  "sourcePath": "/Users/jtakalai/Documents/workspace/data-union-solidity/contracts/DataUnionFactorySidechain.sol",
  "compiler": {
    "name": "solc",
    "version": "0.6.6+commit.6c089d02.Emscripten.clang"
  },
  "schemaVersion": "3.2.3",
  "updatedAt": "2020-09-07T08:39:05.088Z",
  "devdoc": {
    "methods": {
      "claimOwnership()": {
        "details": "Allows the pendingOwner address to finalize the transfer."
      },
      "transferOwnership(address)": {
        "details": "Allows the current owner to set the pendingOwner address.",
        "params": {
          "newOwner": "The address to transfer ownership to."
        }
      }
    }
  },
  "userdoc": {
    "methods": {}
  }
}